:020000040800F2
:1000000000280020B10C0008FD0B0008030C0008BC
:10001000090C00080F0C0008150C00080000000077
:100020000000000000000000000000001B0C0008A1
:10003000270C000800000000330C00083F0C0008EB
:10004000F90C0008F90C0008F90C0008F90C00087C
:10005000F90C0008F90C0008F90C0008F90C00086C
:10006000F90C0008F90C0008F90C0008F90C00085C
:10007000F90C0008F90C0008F90C0008F90C00084C
:10008000F90C0008F90C0008F90C0008F90C00083C
:10009000F90C0008F90C0008F90C0008F90C00082C
:1000A000F90C0008F90C0008F90C0008F90C00081C
:1000B000F90C0008F90C000800000000F90C000819
:1000C000F90C00080000000000000000F90C000816
:1000D00000000000F90C0008F90C00080000000006
:1000E000F90C0008F90C0008F90C000800000000E9
:1000F0000000000000000000000000000000000000
:0C01000000000000000000005FF808F1A3
:10010C0010B5054C237833B9044B13B10448AFF345
:10011C0000800123237010BD14000020000000009B
:10012C001C1B000808B5034B1BB103490348AFF374
:10013C00008008BD00000000180000201C1B0008F7
:10014C0080B582B000AF78607B68092B00F2BE816D
:10015C0001A252F823F000BF8D010008E101000854
:10016C003502000889020008DD020008310300088E
:10017C0085030008D90300082D0400088104000839
:10018C0000228021D04801F097F800224FF48071B2
:10019C00CD4801F091F800224FF40071CA4801F0EB
:1001AC008BF800224FF48061C74801F085F80022DB
:1001BC004FF40061C44801F07FF800224FF48051E5
:1001CC00C14801F079F801224FF40051BE4801F00A
:1001DC0073F8A5E101228021BB4801F06DF80022E3
:1001EC004FF48071B84801F067F800224FF40071A9
:1001FC00B54801F061F801224FF48061B24801F07A
:10020C005BF801224FF40061AF4801F055F8012270
:10021C004FF48051AC4801F04FF801224FF40051DB
:10022C00A94801F049F87BE100228021A64801F0A1
:10023C0043F800224FF48071A34801F03DF80122ED
:10024C004FF40071A04801F037F800224FF48061A0
:10025C009D4801F031F800224FF400619A4801F0FA
:10026C002BF801224FF48051974801F025F8002219
:10027C004FF40051944801F01FF851E10022802105
:10028C00914801F019F800224FF480718E4801F06A
:10029C0013F800224FF400718B4801F00DF8002286
:1002AC004FF48061884801F007F801224FF4006197
:1002BC00854801F001F801224FF48051824800F08A
:1002CC00FBFF00224FF400517F4800F0F5FF27E1BF
:1002DC00012280217C4800F0EFFF00224FF4807156
:1002EC00794800F0E9FF00224FF40071764800F0E5
:1002FC00E3FF01224FF48061734800F0DDFF01221F
:10030C004FF40061704800F0D7FF00224FF4805189
:10031C006D4800F0D1FF00224FF400516A4800F004
:10032C00CBFFFDE000228021674800F0C5FF0122D1
:10033C004FF48071644800F0BFFF00224FF400714D
:10034C00614800F0B9FF00224FF480615E4800F074
:10035C00B3FF01224FF400615B4800F0ADFF0022B7
:10036C004FF48051584800F0A7FF00224FF4005181
:10037C00554800F0A1FFD3E000228021524800F044
:10038C009BFF01224FF480714F4800F095FF002233
:10039C004FF400714C4800F08FFF00224FF4806145
:1003AC00494800F089FF00224FF40061464800F0F4
:1003BC0083FF00224FF48051434800F07DFF002260
:1003CC004FF40051404800F077FFA9E00022802153
:1003DC003D4800F071FF00224FF480713A4800F064
:1003EC006BFF00224FF40071374800F065FF0122CB
:1003FC004FF48061344800F05FFF01224FF400613C
:10040C00314800F059FF01224FF480512E4800F082
:10041C0053FF01224FF400512B4800F04DFF7FE0B9
:10042C0000228021284800F047FF00224FF4807101
:10043C00254800F041FF00224FF40071224800F0E3
:10044C003BFF00224FF480611F4800F035FF002273
:10045C004FF400611C4800F02FFF00224FF4805134
:10046C00194800F029FF00224FF40051164800F003
:10047C0023FF55E000228021134800F01DFF0022CD
:10048C004FF48071104800F017FF00224FF40071F8
:10049C000D4800F011FF01224FF480610A4800F072
:1004AC000BFF01224FF40061074800F005FF00220A
:1004BC004FF48051044800F0FFFE00224FF400512D
:1004CC00014800F0F9FE2BE00008014001228021D8
:1004DC00154800F0F1FE01224FF48071124800F033
:1004EC00EBFE01224FF400710F4800F0E5FE0122F3
:1004FC004FF480610C4800F0DFFE01224FF40061E4
:10050C00094800F0D9FE01224FF48051064800F052
:10051C00D3FE01224FF40051034800F0CDFE00BF82
:10052C0000BF0837BD4680BD0008014080B582B0D1
:10053C0000AF78607B68092B00F2808101A252F831
:10054C0023F000BF79050008C10500080906000862
:10055C005106000899060008E10600082907000862
:10056C0071070008B90700080108000800220221E1
:10057C00C64800F0A1FE00220421C44800F09CFEF5
:10058C0000228021C14800F097FE00224021BF4884
:10059C0000F092FE00222021BC4800F08DFE0022CB
:1005AC001021BA4800F088FE01220821B74800F05B
:1005BC0083FE67E101220221B44800F07DFE002297
:1005CC000421B24800F078FE00228021AF4800F0F0
:1005DC0073FE01224021AD4800F06EFE0122202165
:1005EC00AA4800F069FE01221021A84800F064FE20
:1005FC0001220821A54800F05FFE43E10022022100
:10060C00A24800F059FE00220421A04800F054FE3C
:10061C00012280219D4800F04FFE002240219B4882
:10062C0000F04AFE00222021984800F045FE0122ED
:10063C001021964800F040FE00220821934800F05B
:10064C003BFE1FE100220221904800F035FE002203
:10065C0004218E4800F030FE002280218B4800F0EF
:10066C002BFE00224021894800F026FE0122202189
:10067C00864800F021FE01221021844800F01CFE67
:10068C0000220821814800F017FEFBE00122022124
:10069C007E4800F011FE002204217C4800F00CFE84
:1006AC0000228021794800F007FE01224021774882
:1006BC0000F002FE01222021744800F0FDFD002212
:1006CC001021724800F0F8FD002208216F4800F05C
:1006DC00F3FDD7E0002202216C4800F0EDFD012271
:1006EC0004216A4800F0E8FD00228021674800F0F0
:1006FC00E3FD00224021654800F0DEFD01222021AF
:10070C00624800F0D9FD00221021604800F0D4FDB1
:10071C00002208215D4800F0CFFDB3E00022022149
:10072C005A4800F0C9FD01220421584800F0C4FDCC
:10073C0000228021554800F0BFFD00224021534883
:10074C0000F0BAFD00222021504800F0B5FD002237
:10075C0010214E4800F0B0FD002208214B4800F05B
:10076C00ABFD8FE000220221484800F0A5FD0022DD
:10077C000421464800F0A0FD00228021434800F0EF
:10078C009BFD01224021414800F096FD01222021D1
:10079C003E4800F091FD012210213C4800F08CFDF8
:1007AC0001220821394800F087FD6BE0002202216C
:1007BC00364800F081FD00220421344800F07CFD15
:1007CC0000228021314800F077FD002240212F4883
:1007DC0000F072FD002220212C4800F06DFD00225B
:1007EC0010212A4800F068FD00220821274800F05B
:1007FC0063FD47E000220221244800F05DFD002249
:10080C000421224800F058FD002280211F4800F0EE
:10081C0053FD012240211D4800F04EFD01222021F4
:10082C001A4800F049FD00221021184800F044FD40
:10083C0000220821154800F03FFD23E0012202218F
:10084C00124800F039FD01220421104800F034FD5B
:10085C00012280210D4800F02FFD012240210B4880
:10086C0000F02AFD01222021084800F025FD01227C
:10087C001021064800F020FD01220821034800F059
:10088C001BFD00BF00BF0837BD4680BD000C0140FA
:10089C0080B500AF00F02CFA00F0E2F800F01CF983
:1008AC00694B1B78032B00F2B88001A252F823F09D
:1008BC00CD0800081D09000875090008C5090008C5
:1008CC0001220221614800F0F7FC012210215F484F
:1008DC0000F0F2FC5E4B1B68C72B0ED900220221E4
:1008EC005A4800F0E9FC5B4B01221A70584B00226D
:1008FC001A60594B4FF496721A60574B1B68184686
:10090C0000F0A4F9554B1B68184600F0B5F984E0CB
:10091C00012208214D4800F0CFFC4D4B1B68B3F56C
:10092C00967F16D300220821484800F0C5FC00220F
:10093C001021464800F0C0FC464B02221A70444B72
:10094C0000221A60444B4FF4FA721A60434BC822CF
:10095C001A60414B1B68184600F078F93F4B1B6836
:10096C00184600F089F958E001220421374800F0BC
:10097C00A3FC01222021354800F09EFC344B1B685F
:10098C00C72B0ED900222021304800F095FC314BAA
:10099C0003221A702E4B00221A60304B4FF49672C1
:1009AC001A602D4B1B68184600F050F92B4B1B6836
:1009BC00184600F061F930E001220421234800F0D0
:1009CC007BFC01224021214800F076FC204B1B6867
:1009DC00B3F5967F16D3002204211C4800F06CFC62
:1009EC0000224021194800F067FC1A4B00221A70B3
:1009FC00174B00221A60184BC8221A60174B4FF481
:100A0C00FA721A60144B1B68184600F01FF9134B4E
:100A1C001B68184600F030F900BF0E4B1A780A4BD1
:100A2C001A700B4B1B680133094A13600A4B1B6885
:100A3C00013B094A1360094B1B68013B074A1360D1
:100A4C000A2000F0B7F92BE7340000200008014021
:100A5C0030000020350000200000002004000020A1
:100A6C0080B590B000AF07F118032822002118467A
:100A7C0001F046F83B1D00221A605A609A60DA6059
:100A8C001A610223BB610123BB621023FB620023AA
:100A9C007B6307F11803184600F026FC0346002B75
:100AAC0001D000F06DF80F237B600023BB600023A6
:100ABC00FB6000233B6100237B613B1D002118463A
:100ACC0000F092FE0346002B01D000F059F800BF55
:100ADC004037BD4680BD000080B586B000AF07F141
:100AEC00080300221A605A609A60DA60214B9B69F5
:100AFC00204A43F0040393611E4B9B6903F00403EB
:100B0C007B607B681B4B9B691A4A43F0080393611B
:100B1C00184B9B6903F008033B603B68002243F6CB
:100B2C00FE71154800F0C8FB0022FE21134800F0AE
:100B3C00C3FB43F6FE73BB600123FB6000233B61E8
:100B4C0002237B6107F1080319460B4800F03AFABF
:100B5C00FE23BB600123FB6000233B6102237B610E
:100B6C0007F108031946054800F02CFA00BF1837A6
:100B7C00BD4680BD0010024000080140000C014041
:100B8C0080B400AF72B600BFFEE7000080B485B041
:100B9C0000AF154B9B69144A43F001039361124B50
:100BAC009B6903F00103BB60BB680F4BDB690E4A0A
:100BBC0043F08053D3610C4BDB6903F080537B60B3
:100BCC007B680A4B5B68FB60FB6823F0E063FB60AF
:100BDC00FB6843F08063FB60044AFB68536000BF12
:100BEC001437BD4680BC7047001002400000014025
:100BFC0080B400AFFEE780B400AFFEE780B400AF76
:100C0C00FEE780B400AFFEE780B400AFFEE780B42F
:100C1C0000AF00BFBD4680BC704780B400AF00BFC2
:100C2C00BD4680BC704780B400AF00BFBD4680BCE1
:100C3C00704780B500AF00F0A1F800BF80BD80B454
:100C4C0000AF00BFBD4680BC7047000080B582B0CD
:100C5C0000AF78607B68074A82FB03125211DB17E6
:100C6C00D31A01331846FFF76BFA00BF0837BD469D
:100C7C0080BD00BF1F85EB5180B582B000AF78609E
:100C8C007B68074A82FB03125211DB17D31A01331C
:100C9C001846FFF74BFC00BF0837BD4680BD00BFB0
:100CAC001F85EB510C480D490D4A002302E0D45826
:100CBC00C4500433C4188C42F9D30A4A0A4C00239A
:100CCC0001E013600432A242FBD3FFF7B8FF00F03F
:100CDC00F3FEFFF7DDFD704700000020140000203C
:100CEC005C1B0008140000203C000020FEE7000004
:100CFC0080B500AF084B1B68074A43F01003136024
:100D0C00032000F02BF90F2000F008F8FFF73EFF4E
:100D1C000023184680BD00BF0020024080B582B081
:100D2C0000AF7860124B1A68124B1B7819464FF4BF
:100D3C007A73B3FBF1F3B2FBF3F3184600F035F919
:100D4C000346002B01D001230EE07B680F2B0AD841
:100D5C00002279684FF0FF3000F00BF9064A7B68EF
:100D6C001360002300E0012318460837BD4680BD00
:100D7C0008000020100000200C00002080B400AF00
:100D8C00054B1B781A46054B1B681344034A13602A
:100D9C0000BFBD4680BC704710000020380000200A
:100DAC0080B400AF024B1B681846BD4680BC704730
:100DBC003800002080B584B000AF7860FFF7F0FFFA
:100DCC00B8607B68FB60FB68B3F1FF3F05D00A4B52
:100DDC001B781A46FB681344FB6000BFFFF7E0FF6B
:100DEC000246BB68D31AFA689A42F7D800BF00BF14
:100DFC001037BD4680BD00BF1000002080B485B008
:100E0C0000AF78607B6803F00703FB600C4BDB687A
:100E1C00BB60BA684FF6FF031340BB60FB681A0255
:100E2C00BB68134343F0BF6343F40033BB60044A15
:100E3C00BB68D36000BF1437BD4680BC704700BF91
:100E4C0000ED00E080B400AF044BDB681B0A03F03C
:100E5C0007031846BD4680BC704700BF00ED00E09C
:100E6C0080B483B000AF03463960FB7197F907304B
:100E7C00002B0ADB3B68DAB20C4997F907301201F8
:100E8C00D2B20B4483F800230AE03B68DAB208497B
:100E9C00FB7903F00F03043B1201D2B20B441A7618
:100EAC0000BF0C37BD4680BC704700BF00E100E0BE
:100EBC0000ED00E080B489B000AFF860B9607A60F2
:100ECC00FB6803F00703FB61FB69C3F10703042B09
:100EDC0028BF0423BB61FB690433062B02D9FB69D1
:100EEC00033B00E000237B614FF0FF32BB6902FA49
:100EFC0003F3DA43BB681A407B699A404FF0FF3129
:100F0C007B6901FA03F3D9437B680B401343184602
:100F1C002437BD4680BC704780B582B000AF786086
:100F2C007B68013BB3F1807F01D301230FE00A4AB8
:100F3C007B68013B53600F214FF0FF30FFF790FFB0
:100F4C00054B00229A60044B07221A6000231846B6
:100F5C000837BD4680BD00BF10E000E080B582B010
:100F6C0000AF78607868FFF749FF00BF0837BD46CF
:100F7C0080BD80B586B000AF0346B9607A60FB7364
:100F8C0000237B61FFF75EFF78617A68B968786946
:100F9C00FFF790FF024697F90F3011461846FFF7FE
:100FAC005FFF00BF1837BD4680BD80B582B000AF73
:100FBC0078607868FFF7B0FF034618460837BD46DF
:100FCC0080BD000080B48BB000AF78603960002326
:100FDC007B6200233B6248E101227B6A02FA03F345
:100FEC00FB613B681B68FA691340BB61BA69FB691A
:100FFC009A4240F037813B685B68A34A93425ED0CB
:10100C00A14A934275D8A14A934258D09F4A934221
:10101C006FD89F4A934252D09D4A934269D89D4AB9
:10102C0093424CD09B4A934263D89B4A934246D0FE
:10103C00994A93425DD8122B2AD8122B59D801A267
:10104C0052F823F0CB100008A5100008B7100008C8
:10105C00F9100008FF100008FF100008FF1000082E
:10106C00FF100008FF100008FF100008FF10000818
:10107C00FF100008FF100008FF100008FF10000808
:10108C00FF100008FF100008AD100008C110000888
:10109C00824A934213D02CE03B68DB683B6229E028
:1010AC003B68DB6804333B6224E03B68DB68083355
:1010BC003B621FE03B68DB680C333B621AE03B6829
:1010CC009B68002B02D104233B6213E03B689B68B6
:1010DC00012B05D108233B627B68FA691A6109E090
:1010EC0008233B627B68FA695A6103E000233B6288
:1010FC0000E000BFBB69FF2B01D87B6801E07B6877
:10110C0004337B61BB69FF2B02D87B6A9B0002E036
:10111C007B6A083B9B003B617B691A680F213B692A
:10112C0001FA03F3DB431A40396A3B6901FA03F312
:10113C001A437B691A603B685B6803F08053002B91
:10114C0000F09080564B9B69554A43F00103936124
:10115C00534B9B6903F00103BB60BB68514A7B6A2C
:10116C009B08023352F82330FB607B6A03F00303C5
:10117C009B000F2202FA03F3DB43FA681340FB6077
:10118C007B68494A93420DD07B68484A934207D00A
:10119C007B68474A934201D1022304E0032302E017
:1011AC00012300E000237A6A02F0030292009340CC
:1011BC00FA681343FB603B497B6A9B080233FA686D
:1011CC0041F823203B685B6803F48033002B06D086
:1011DC00384B1A683749BB6913430B6006E0354B33
:1011EC001A68BB69DB43334913400B603B685B688F
:1011FC0003F40033002B06D02E4B5A682D49BB69E3
:10120C0013434B6006E02B4B5A68BB69DB432949FF
:10121C0013404B603B685B6803F48013002B06D0D3
:10122C00244B9A682349BB6913438B6006E0214B1E
:10123C009A68BB69DB431F4913408B603B685B6852
:10124C0003F40013002B06D01A4BDA681949BB695A
:10125C001343CB6006E0174BDA68BB69DB431549D7
:10126C001340CB607B6A01337B623B681A687B6AF4
:10127C0022FA03F3002B7FF4AFAE00BF00BF2C3774
:10128C00BD4680BC704700BF00003210000031101A
:10129C00000022100000211000001210000011109C
:1012AC00001002400000014000080140000C014009
:1012BC00001001400004014080B483B000AF78609E
:1012CC000B467B8013467B707B78002B03D07A888F
:1012DC007B681A6103E07B881A047B681A6100BF83
:1012EC000C37BD4680BC704780B586B000AF7860C7
:1012FC007B68002B01D101236CE27B681B6803F037
:10130C000103002B00F08780924B5B6803F00C0309
:10131C00042B0CD08F4B5B6803F00C03082B12D101
:10132C008C4B5B6803F48033B3F5803F0BD1894B56
:10133C001B6803F40033002B6CD07B685B68002BBC
:10134C0068D1012346E27B685B68B3F5803F06D128
:10135C00804B1B687F4A43F4803313602EE07B681C
:10136C005B68002B0CD17B4B1B687A4A23F48033CF
:10137C001360784B1B68774A23F4802313601DE0BD
:10138C007B685B68B3F5A02F0CD1724B1B68714A5C
:10139C0043F4802313606F4B1B686E4A43F4803315
:1013AC0013600BE06B4B1B686A4A23F480331360A9
:1013BC00684B1B68674A23F4802313607B685B6867
:1013CC00002B13D0FFF7ECFC386108E0FFF7E8FCCA
:1013DC0002463B69D31A642B01D90323FAE15D4B16
:1013EC001B6803F40033002BF0D014E0FFF7D8FC9B
:1013FC00386108E0FFF7D4FC02463B69D31A642B32
:10140C0001D90323E6E1534B1B6803F40033002B93
:10141C00F0D100E000BF7B681B6803F00203002BD7
:10142C0063D04C4B5B6803F00C03002B0BD0494B87
:10143C005B6803F00C03082B1CD1464B5B6803F470
:10144C008033002B16D1434B1B6803F00203002B97
:10145C0005D07B681B69012B01D00123BAE13D4B00
:10146C001B6823F0F8027B685B69DB003949134386
:10147C000B603AE07B681B69002B20D0364B0122B5
:10148C001A60FFF78DFC386108E0FFF789FC024613
:10149C003B69D31A022B01D903239BE12D4B1B680B
:1014AC0003F00203002BF0D02A4B1B6823F0F80248
:1014BC007B685B69DB00274913430B6015E0264B07
:1014CC0000221A60FFF76CFC386108E0FFF768FC3B
:1014DC0002463B69D31A022B01D903237AE11D4B37
:1014EC001B6803F00203002BF0D17B681B6803F030
:1014FC000803002B3AD07B689B69002B19D0174B43
:10150C0001221A60FFF74CFC386108E0FFF748FC39
:10151C0002463B69D31A022B01D903235AE10D4B26
:10152C005B6A03F00203002BF0D0012000F0A6FA56
:10153C001CE00A4B00221A60FFF732FC38610FE006
:10154C00FFF72EFC02463B69D31A022B08D9032362
:10155C0040E100BF001002400000424280044242C1
:10156C009E4B5B6A03F00203002BE9D17B681B687E
:10157C0003F00403002B00F0A6800023FB75974BAF
:10158C00DB6903F08053002B0DD1944BDB69934A3C
:10159C0043F08053D361914BDB6903F08053BB6004
:1015AC00BB680123FB758E4B1B6803F48073002B07
:1015BC0018D18B4B1B688A4A43F480731360FFF776
:1015CC00EFFB386108E0FFF7EBFB02463B69D31AEF
:1015DC00642B01D90323FDE0814B1B6803F480735A
:1015EC00002BF0D07B68DB68012B06D17B4B1B6A90
:1015FC007A4A43F0010313622DE07B68DB68002B11
:10160C000CD1764B1B6A754A23F001031362734BA2
:10161C001B6A724A23F0040313621CE07B68DB68CC
:10162C00052B0CD16D4B1B6A6C4A43F004031362FF
:10163C006A4B1B6A694A43F0010313620BE0674B68
:10164C001B6A664A23F001031362644B1B6A634AEC
:10165C0023F0040313627B68DB68002B15D0FFF7C3
:10166C009FFB38610AE0FFF79BFB02463B69D31AEC
:10167C0041F28832934201D90323ABE0574B1B6AEA
:10168C0003F00203002BEED014E0FFF789FB386166
:10169C000AE0FFF785FB02463B69D31A41F2883218
:1016AC00934201D9032395E04C4B1B6A03F00203D0
:1016BC00002BEED1FB7D012B05D1484BDB69474A52
:1016CC0023F08053D3617B68DB69002B00F08180B1
:1016DC00424B5B6803F00C03082B61D07B68DB6921
:1016EC00022B46D13F4B00221A60FFF759FB3861A1
:1016FC0008E0FFF755FB02463B69D31A022B01D9D0
:10170C00032367E0354B1B6803F00073002BF0D10B
:10171C007B681B6AB3F5803F08D1304B5B6823F4C0
:10172C0000327B689B682D4913434B602B4B5B68E5
:10173C0023F474127B68196A7B685B6A0B43274934
:10174C0013434B60274B01221A60FFF729FB3861CA
:10175C0008E0FFF725FB02463B69D31A022B01D99F
:10176C00032337E01D4B1B6803F00073002BF0D0F4
:10177C002FE01C4B00221A60FFF712FB386108E0C7
:10178C00FFF70EFB02463B69D31A022B01D9032348
:10179C0020E0124B1B6803F00073002BF0D118E013
:1017AC007B68DB69012B01D1012313E00B4B5B68D8
:1017BC00FB60FB6803F480327B681B6A9A4206D19B
:1017CC00FB6803F470127B685B6A9A4201D00123B8
:1017DC0000E0002318461837BD4680BD00100240BB
:1017EC00007000406000424280B584B000AF786069
:1017FC0039607B68002B01D10123D0E06A4B1B6858
:10180C0003F007033A689A4210D9674B1B6823F020
:10181C00070265493B6813430B60634B1B6803F07D
:10182C0007033A689A4201D00123B8E07B681B6831
:10183C0003F00203002B20D07B681B6803F0040329
:10184C00002B05D0594B5B68584A43F4E063536056
:10185C007B681B6803F00803002B05D0534B5B68B7
:10186C00524A43F460535360504B5B6823F0F002D0
:10187C007B689B684D4913434B607B681B6803F086
:10188C000103002B40D07B685B68012B07D1474BD1
:10189C001B6803F40033002B15D101237FE07B6818
:1018AC005B68022B07D1414B1B6803F00073002BC4
:1018BC0009D1012373E03D4B1B6803F00203002B9D
:1018CC0001D101236BE0394B5B6823F003027B6889
:1018DC005B68364913434B60FFF762FAF8600AE025
:1018EC00FFF75EFA0246FB68D31A41F28832934244
:1018FC0001D9032353E02D4B5B6803F00C027B688A
:10190C005B689B009A42EBD1274B1B6803F00703E3
:10191C003A689A4210D2244B1B6823F007022249E2
:10192C003B6813430B60204B1B6803F007033A68BA
:10193C009A4201D0012332E07B681B6803F0040358
:10194C00002B08D0194B5B6823F4E0627B68DB68E2
:10195C00164913434B607B681B6803F00803002B8C
:10196C0009D0124B5B6823F460527B681B69DB0067
:10197C000E4913434B6000F021F802460B4B5B6899
:10198C001B0903F00F030A49CB5C22FA03F3094A43
:10199C001360094B1B681846FFF7C0F90023184663
:1019AC001037BD4680BD00BF002002400010024031
:1019BC00441B0008080000200C00002090B48AB0E2
:1019CC0000AF2A4B3C1D0FCB84E80F0040F20123E3
:1019DC003B800023FB610023BB6100237B6200235F
:1019EC007B6100233B62224B5B68FB61FB6903F06C
:1019FC000C03042B02D0082B03D02DE01D4B3B62B3
:101A0C002DE0FB699B0C03F00F0307F12802134434
:101A1C0013F8243C7B61FB6903F48033002B13D057
:101A2C00134B5B685B0C03F0010307F128021344B2
:101A3C0013F8283CBB617B690E4A02FB03F2BB69BD
:101A4C00B2FBF3F37B6204E07B690B4A02FB03F30A
:101A5C007B627B6A3B6202E0064B3B6200BF3B6AE7
:101A6C0018462837BD4690BC704700BF341B000891
:101A7C000010024000127A0000093D0080B485B0CD
:101A8C0000AF78600A4B1B680A4AA2FB03235B0A6F
:101A9C007A6802FB03F3FB6000BFFB685A1EFA6016
:101AAC00002BF9D100BF00BF1437BD4680BC704776
:101ABC0008000020D34D621070B500260C4D0D4C63
:101ACC00641BA410A64209D100F022F800260A4D8E
:101ADC000A4C641BA410A64205D170BD55F8043BFA
:101AEC0098470136EEE755F8043B98470136F2E784
:101AFC00541B0008541B0008541B0008581B0008FA
:101B0C0003460244934200D1704703F8011BF9E7E6
:101B1C00F8B500BFF8BC08BC9E467047F8B500BFCE
:081B2C00F8BC08BC9E4670479E
:101B340002030405060708090A0B0C0D0E0F10100A
:101B44000000000000000000010203040607080969
:041B54003101000853
:041B58000D01000873
:101B5C00C8000000F40100000024F4001000000094
:041B6C000100000074
:0400000508000CB132
:00000001FF
